:020000040000fa
:080000000001040000000000f3
:020000040000fa
:0400080028020000ca
:020000040000fa
:04000c006a02000084
:020000040000fa
:04001000aa02000040
:020000040000fa
:04001400480200009e
:020000040000fa
:040018008a02000058
:020000040000fa
:04001c00fa020000e4
:020000040000fa
:04002000fa020000e0
:020000040000fa
:04002400fa020000dc
:020000040000fa
:04002800fa020000d8
:020000040000fa
:04002c00fa020000d4
:020000040000fa
:04003000fa020000d0
:020000040000fa
:04003400ca020000fc
:020000040000fa
:04003800fa020000c8
:020000040000fa
:04003c00fa020000c4
:020000040000fa
:04004000fa020000c0
:020000040000fa
:04004400fa020000bc
:020000040000fa
:04004800fa020000b8
:020000040000fa
:04004c00fa020000b4
:020000040000fa
:04005000fa020000b0
:020000040000fa
:04005400fa020000ac
:020000040000fa
:04005800fa020000a8
:020000040000fa
:04005c00fa020000a4
:020000040000fa
:04006000fa020000a0
:020000040000fa
:04006400fa0200009c
:020000040000fa
:04006800fa02000098
:020000040000fa
:04006c00fa02000094
:020000040000fa
:04007000fa02000090
:020000040000fa
:04007400fa0200008c
:020000040000fa
:04007800fa02000088
:020000040000fa
:04007c00fa02000084
:020000040000fa
:04008000fa02000080
:020000040000fa
:04008400fa0200007c
:020000040000fa
:04008800fa02000078
:020000040000fa
:04008c00fa02000074
:020000040000fa
:04009000fa02000070
:020000040000fa
:04009400fa0200006c
:020000040000fa
:04009800fa02000068
:020000040000fa
:04009c00fa02000064
:020000040000fa
:0400a000fa02000060
:020000040000fa
:0400a400fa0200005c
:020000040000fa
:0400a800fa02000058
:020000040000fa
:0400ac00fa02000054
:020000040000fa
:0400b000fa02000050
:020000040000fa
:0400b400fa0200004c
:020000040000fa
:0400b800fa02000048
:020000040000fa
:0400bc00fa02000044
:020000040000fa
:0400c000fa02000040
:020000040000fa
:0400c400fa0200003c
:020000040000fa
:0400c800fa02000038
:020000040000fa
:0400cc00fa02000034
:020000040000fa
:0400d000fa02000030
:020000040000fa
:0400d400fa0200002c
:020000040000fa
:0400d800fa02000028
:020000040000fa
:0400dc00fa02000024
:020000040000fa
:0400e000fa02000020
:020000040000fa
:0400e400fa0200001c
:020000040000fa
:0400e800fa02000018
:020000040000fa
:0400ec00fa02000014
:020000040000fa
:0400f000fa02000010
:020000040000fa
:0400f400fa0200000c
:020000040000fa
:0400f800fa02000008
:020000040000fa
:0400fc00fa02000004
:020000040000fa
:04010000fa020000ff
:020000040000fa
:04010400fa020000fb
:020000040000fa
:04010800fa020000f7
:020000040000fa
:04010c00fa020000f3
:020000040000fa
:04011000fa020000ef
:020000040000fa
:04011400fa020000eb
:020000040000fa
:04011800fa020000e7
:020000040000fa
:04011c00fa020000e3
:020000040000fa
:04012000fa020000df
:020000040000fa
:04012400fa020000db
:020000040000fa
:04012800fa020000d7
:020000040000fa
:04012c00fa020000d3
:020000040000fa
:04013000fa020000cf
:020000040000fa
:04013400fa020000cb
:020000040000fa
:04013800fa020000c7
:020000040000fa
:04013c00fa020000c3
:020000040000fa
:04014000fa020000bf
:020000040000fa
:04014400fa020000bb
:020000040000fa
:04014800fa020000b7
:020000040000fa
:04014c00fa020000b3
:020000040000fa
:04015000fa020000af
:020000040000fa
:04015400fa020000ab
:020000040000fa
:04015800fa020000a7
:020000040000fa
:04015c00fa020000a3
:020000040000fa
:04016000fa0200009f
:020000040000fa
:04016400fa0200009b
:020000040000fa
:04016800fa02000097
:020000040000fa
:04016c00fa02000093
:020000040000fa
:04017000fa0200008f
:020000040000fa
:04017400fa0200008b
:020000040000fa
:04017800fa02000087
:020000040000fa
:04017c00fa02000083
:020000040000fa
:04018000fa0200007f
:020000040000fa
:04018400fa0200007b
:020000040000fa
:04018800fa02000077
:020000040000fa
:04018c00fa02000073
:020000040000fa
:04019000fa0200006f
:020000040000fa
:04019400fa0200006b
:020000040000fa
:04019800fa02000067
:020000040000fa
:04019c00fa02000063
:020000040000fa
:0401a000fa0200005f
:020000040000fa
:0401a400fa0200005b
:020000040000fa
:0401a800fa02000057
:020000040000fa
:0401ac00fa02000053
:020000040000fa
:0401b000fa0200004f
:020000040000fa
:0401b400fa0200004b
:020000040000fa
:0401b800fa02000047
:020000040000fa
:0401bc00fa02000043
:020000040000fa
:0401c000fa0200003f
:020000040000fa
:0401c400fa0200003b
:020000040000fa
:0401c800fa02000037
:020000040000fa
:0401cc00fa02000033
:020000040000fa
:0401d000fa0200002f
:020000040000fa
:0401d400fa0200002b
:020000040000fa
:0401d800fa02000027
:020000040000fa
:0401dc00fa02000023
:020000040000fa
:0401e000fa0200001f
:020000040000fa
:0401e400fa0200001b
:020000040000fa
:0401e800fa02000017
:020000040000fa
:0401ec00fa02000013
:020000040000fa
:0401f000fa0200000f
:020000040000fa
:0401f400fa0200000b
:020000040000fa
:0401f800fa02000007
:020000040000fa
:0401fc00fa02000003
:020000040000fa
:100200002fa720000e7f24000e01880000000000b0
:10021000000020000000e000020032000001200089
:100220002002880014000700f40007000000e0002e
:1002300003003a00005522000100200002003700b0
:100240000000200001002000810f7000010032003a
:1002500014000700000020000000e000020032004f
:100260000000020000000000e81e02000000000084
:100270000040da000000fe004440a90000352000e4
:100280000000e00003003200002020009001880000
:100290004440a800000006008a1f78008b1f7800e9
:1002a00000000600a1028800800478000000eb0036
:1002b0001f003700e284440054a0b4009905ba003e
:1002c000e284440054a0b4009906ba00e2844400d9
:1002d00054a0b4000006eb00476fde00fd07b2003b
:1002e000ae018800636ce10003003a00eaff0700fa
:1002f0000000eb000e003700606ce10008003a00df
:10030000004deb000a05e800020039003420ec0043
:100310000af0a0008b05e900f9ff3e000400370059
:100320006168e100010032000086eb000b0007006d
:1003300019c7ba001905ba000e04e00003003a001c
:100340000a00e000dbff3a0000000600fe07b200f2
:10035000ae0288008a047800f5ff37000cd0a300b5
:10036000e20f4d001c00390089027800354dba00bb
:100370000a05e800020039003420ec000af0a00071
:100380008b05e9000f003200254dba000a05e80090
:10039000020039003420ec000af0a0008b05e900cf
:1003a000080032000c00e0000600320015cdba0053
:1003b0000a05e800020039003420ec000af0a00031
:1003c0008b05e9008984e80054a0b4000b00e0002c
:1003d000e2ff3a00000006009902ba00055d7800cd
:1003e0008b05e900f7ff3200c82ade00055d7800c2
:1003f0008b05e900f3ff32000c00e000f1ff320052
:1004000019ddba00eeff37000022040000000000f2
:10041000961b040000000000b01b04000000000058
:10042000ce1b040000000000ec1b040000000000d4
:100430000e1c040000000000301c0400000000003e
:10044000521c040000000000801b0400000000009b
:100450003600f800809fbe00829fbe00849fbe00d1
:10046000869fbe000000fa008020a9000000eb007b
:10047000131207000080fa004f03be004f02be00b7
:100480004f01be004f00be003600f90000400600dc
:100490003600f800809fbe00829fbe00849fbe0091
:1004a000869fbe000000fa000a1207008040a900e3
:1004b00010002000021207000080fa004f03be0067
:1004c0004f02be004f01be004f00be003600f900d3
:1004d000004006003600f800809fbe00829fbe00ec
:1004e000849fbe00869fbe000000fa008060a900c5
:1004f00020002000f21107000080fa004f03be0028
:100500004f02be004f01be004f00be003600f90092
:10051000004006003600f800809fbe00829fbe00ab
:10052000849fbe00869fbe000000fa008080a90064
:1005300030002000e21107000080fa004f03be00e7
:100540004f02be004f01be004f00be003600f90052
:10055000004006003600f800809fbe00829fbe006b
:10056000849fbe00869fbe000000fa008600a9009e
:1005700070002000d21107000080fa004f03be0077
:100580004f02be004f01be004f00be003600f90012
:10059000004006003600f800809fbe00829fbe002b
:1005a000849fbe00869fbe003200f8003400f80031
:1005b00010002000a0018800002020009001880089
:1005c0000000fa008860a900dd0c07009b0d070001
:1005d0000080fa003400f9003200f9004f03be0039
:1005e0004f02be004f01be004f00be003600f900b2
:1005f000004006000040da000000fe000000050098
:100600000000fa0068815700cfb897000102070088
:100610000080fa0000000600250007007d000700aa
:10062000b10007002d010700550107005102070026
:10063000fc013700881f780000047800080078006b
:1006400011050700080078004f047800000006003c
:1006500080007800040037003104e00002003a0016
:100660000000510000000600010178000108a3000d
:10067000f9ff3a008101780031017800f4ef2f0092
:10068000020242000281ea0002016200040828001e
:1006900004016100f7ff3200830078000101780057
:1006a0003104e000fdff3a000000510000000600a8
:1006b000ec874700889fbe008a9fbe008c9fbe00cb
:1006c0008e1f78000006780001047800180790005b
:1006d0002805900098067800cdb79f00b8059000d7
:1006e0003202be002203be000400be000601be00ae
:1006f0004f18de006011b8008000eb00d0b79f00fb
:10070000e1b79f00f2b79f0083bf9f00800478008d
:100710000900e000060032006000b8006011b80077
:10072000040250008582580006035900878359004f
:100730000e00e000020035000d10a100cdb79f00b3
:100740000900e00005003a004fb097000028a30020
:1007500002003a000038a300020032008a00e900db
:10076000010037008a007800f8815700a2002000bd
:1007700008007800860007000900e00003003a0046
:10078000cfb097000128a300080032000000e90064
:1007900000814500b1c2b3000900e0000100320051
:1007a000d1c2b30001497800050037000138a30029
:1007b000030032000000e90001c2b3008175780037
:1007c000480190000201e9000001510080804500cd
:1007d0004fb297008a0178000c00780030020700c1
:1007e0009c0090000188a300040032009800900053
:1007f000810f500001003d00010078004f07780094
:100800004f06be004f05be004f04be00cf00b10032
:10081000000006000200fa00889fbe008a9fbe000a
:10082000800578000104780002007800180190002b
:100830002805900098007800b1bf9f00b804900090
:100840000200e000020035000110a100b1bf9f00ce
:10085000ea815700820020008a0078003002be0042
:100860002003be0008007800490007003fb9970048
:10087000f0006100030032000000e90001c3b30092
:10088000817478003fb99700e800610003003200ee
:100890000000e90001c2b3008174780048019000b3
:1008a0000201e90000015100808044003fba970036
:1008b0008a0178000b007800f90107009b00900086
:1008c0000188a3000400320098009000810f5000be
:1008d00001003d00010078004f05be004f04be003e
:1008e0000080fa0000000600ea874700889fbe00eb
:1008f0008a9fbe008e1f78000004780003007800f5
:100900007287570084e2260055c72600049fbe0068
:10091000c3962200030f78006c875700004feb004e
:1009200011059000a1049000910578000200e000fc
:10093000020032000207780001003700728757007a
:100940000000e00002003a000e00780040ff0700bf
:100950000a00e000030035008a0f50000100360055
:100960000a0078000b027800890178000001780005
:100970008e00780008007800c90107004f07780052
:100980004f05be004f04be00af00b10000000600de
:10099000f4874700889fbe008a9fbe008c9fbe00e0
:1009a0008e1f78000605be000404be0081bf9f00b4
:1009b00082b79f00f3b79f00b0009000e1b79f009f
:1009c0001301780092b79f009006900040009000bd
:1009d0000000e900000678000d00e00001003d0085
:1009e0001d0020008040eb00efb19700817178007e
:1009f0001e0020001f0037000c06e9000fb0970012
:100a0000cf80de006109b900a0b79f00b1b79f0099
:100a1000c2b79f00d3b79f000203be000002be0012
:100a20000800be000a01be0071050700000778003b
:100a30000e4078000043b000efb0970080707e0059
:100a40008d06e9000fb997000201e90082bf9f00ff
:100a50002fb29700bfb297004fb39700dfb3970054
:100a60000800be000a01be005a0507000205be00cc
:100a70000004be000c00e0000d003400e00f540044
:100a8000e08f5c00e00f5d00e08f5d00daff3a0070
:100a90000d00e000d8ff3c008fb997000300e00094
:100aa000030034001fb097000018a300d2ff3a00e3
:100ab0000e00e00002003a00ffb097001140a100d4
:100ac0000c0078004f0778004f06be004f05be00af
:100ad0004f04be004f01b100000006000200fa0002
:100ae000889fbe008a9fbe00000578000104780040
:100af0000200780018019000a80490009800780087
:100b0000b1bf9f00b80590000200e0000200350070
:100b10000110a100b1bf9f00ea815700a200200090
:100b2000890078003002be002003be000800780073
:100b300097ff0700480190000201e9000001510001
:100b4000808045003fba9700890178000a0078004c
:100b5000530107009a0090000188a30004003200ae
:100b600098009000810f500001003d0001007800c6
:100b70004f05be004f04be000080fa0000000600d2
:100b8000fa874700889fbe008a9fbe008c9fbe00e8
:100b90008e1f7800800478000104780082057800b8
:100ba000180190002805900018077800b800900000
:100bb0000200e000020035000e10a1000100370025
:100bc0001200200070006700e0b79f0009003200ab
:100bd0003b02be002b03be00e00f5200e08f5a0024
:100be000e00f5b00e08f5b00020032008a86e900c4
:100bf000010037008a067800e8026700f5b79f0019
:100c0000010032008d06e9003b02be002b03be004e
:100c1000e4af9f00f5af9f0086b79f0097b79f0096
:100c2000480690000c06e9000040eb0080707e0052
:100c3000efb297007fb297008903780081047800b3
:100c4000d8af9f00020478008bbf9f008a05780010
:100c5000034578002a0037000c06e9006fab9700c7
:100c60006f006300e90f500002003c000003b00079
:100c7000010037007005b0000a03fb001604b10044
:100c8000f90f53000c003e00000378000650a0004e
:100c90001606b100f90f530007003e00b4b79f00dd
:100ca000a5b79f00c7b79f009e030700cfb397006b
:100cb000afb297003fb2970080747e000804e9004d
:100cc0008d06e9006fa89700ffa897000fb1970065
:100cd0009fb19700460020008301d1000281d3001c
:100ce0008180d3000080d3000603e900faff3a00b8
:100cf000e0af9f00f1af9f0082b79f0093b79f00c6
:100d0000e10f56000f0034006fa89700ffa897006e
:100d10000fb197009fb19700e00f5000e08f58008f
:100d2000e00f5900e08f5900cbff3a000800e000c7
:100d3000c9ff3c000d00e000020034000e18a300c3
:100d4000c5ff3a0089007800f4b79f008704780057
:100d50005fac97008a4178000b0578008fbd970043
:100d60000500e000100032003b02be002b03be0075
:100d7000e4af9f00f5af9f0086b79f0097b79f0035
:100d8000e00f5200e08f5a00e00f5b00e08f5b0045
:100d9000050032000c06e90083707e000c06e900b5
:100da00000c3b30080707e00ffb297000500e00032
:100db000030032000c06e90000c2b30080707e0020
:100dc000480190000201e9000c0151008c804000b4
:100dd0000e0278008a01780009007800b000070050
:100de000990090000188a300040032009800900050
:100df000810f500001003d00010078004f0778008e
:100e00004f06be004f05be004f04be00af01b1004b
:100e1000000006008201780001017800f1ff270040
:100e20004703370084082000848f50001d003200e3
:100e30000d003c0014082000848f50002700320071
:100e400002003c00040820000400370024082000b1
:100e5000848f50003400320044082000848f5000fa
:100e600043003a0036003700040a2000848f500007
:100e70002700320004003c0004092000848f500049
:100e80003b003a0028003700020c2000828f5000ff
:100e90002f003200020f2000828f500034003a00f1
:100ea0002b0037009380e9000200e00005003200cb
:100eb000810978001102fb00cfa2de00612bb9008e
:100ec0002800370081097800114278000482fb0075
:100ed0008002eb006033b800220037001302780074
:100ee000e40052000200e0000500320081097800b1
:100ef0001102be004fabde008603780019003700f8
:100f0000810978001102be006033b8001500370077
:100f10009380e9008109780011027800cfa2de00f9
:100f2000612bb9000f00370093027800e88052006f
:100f3000810978003102be002103be00090037009c
:100f40009380e9000200e00002003200f1ff370068
:100f50009380e90081097800110278008002eb009b
:100f60006033b8000498be000690be001000050073
:100f70000000050044082000848f50002500320046
:100f800008003c0014082000848f50001400320038
:100f900024082000848f5000240032000408200020
:100fa0000c00370004092000848f50001f0032001d
:100fb00004003c0084082000848f500024003a0084
:100fc0000e003700040a2000848f50001100320008
:100fd000040c2000848f50001d003a000d003700e3
:100fe0009380e90081097800910078000108780079
:100ff000cf91de008288be00140037009380e900a4
:101000008109780091007800010878008248780012
:101010000e0037009380e900810978009100780084
:101020000108780082087800080037009380e90002
:101030008109780091007800010878006112b900f8
:10104000612bb9008498be008690be001000050098
:1010500000000500889fbe00000478004800900052
:1010600082047800808f54000100360080047800ec
:1010700009017800580090001802070058009000fd
:101080000900400050049800c80090008984500076
:10109000490498000048eb004f04be000000060021
:1010a000f2874700889fbe008a9fbe008c9fbe00cb
:1010b0008e1f780080047800010578000204780013
:1010c000830578006107620002003a008b0f54002c
:1010d00008003900080178008a00780009007800cb
:1010e000dcff07008b0f54000200390088057800f0
:1010f0001e003700088655000c017800f00f5600de
:101100000100360002012000010220007e8057000d
:10111000f90107008c067800050037000201200065
:10112000fe80570009007800caff0700f0865600cd
:10113000ef8f5600f9ff3e004461de0000ff2f00f4
:101140000091b90002014600fe80570009007800b6
:10115000c0ff07000e00e00004003a00080178001c
:101160008a00780009007800baff07000b007800b9
:101170004f0778004f06be004f05be004f04be006b
:101180002f01b1000000060000000500000005006e
:1011900000000500000178000040eb008080fb00ab
:1011a0008180400043a5200063c278000404e00071
:1011b00003003a0050a5200060c07800000006003f
:1011c00092017800934f520004003a0050a520008d
:1011d00060c078000309e800010037000040e80023
:1011e000ea4f5000edff360000000600f68747008a
:1011f000889fbe008a9fbe008c9fbe008e1f780015
:101200000005780001047800830578000406780062
:101210000000eb00c0b79f008080eb00d1b79f00bb
:10122000e0b79f00f2b79f000008200080bf9f003a
:1012300098007800010078008004eb00010037007e
:101240008904e800304178000204e0000300320025
:1012500053c2b300834f5100f9ff3a000900e00088
:1012600004003200090178000a00780079ff0700c5
:10127000188c44001807780050c2b3009e4f10002d
:101280003f013a000e07e8000e0c7800100037000e
:10129000cfb097000100a0000b003700cfb097003f
:1012a0000110a00008003700cfb097000120a00077
:1012b00005003700cfb097000130a00002003700d2
:1012c000cfb097000140a000c1b79f00000ce8001c
:1012d0001800780090407800b2c2b30082cf50006e
:1012e000f1ff320007003c0002c2b30082cf500081
:1012f000f0ff320032c2b30082cf500007003a0044
:10130000efff3700d2c2b30082cf5000e0ff3200bf
:1013100002c3b30082cf5000e0ff3200a2c2b3008c
:1013200082cf50000d003a00000ce8001c80e9005c
:10133000000e780010007800e0b79f000000e00089
:101340000f003d00cfb097000100a200c1b79f0081
:101350000000ea00e0b79f000900370039010700ec
:10136000e0b79f0001003700000ce800180078008b
:101370009000fb000103b100e98f5000faff360036
:101380004fb097000008a300020032000010a10037
:10139000c0b79f0018007800e1c2b30090cf1000e2
:1013a00016003a008000eb00d1b79f000000e80073
:1013b000000c7800a1c2b30090cf100006003a00e4
:1013c000000ce8001c80e900000e78001000780096
:1013d000d0b79f00090037001a010700d0b79f005f
:1013e00001003700000ce800180078009000fb00b6
:1013f0000103b100e98f5000faff360008007800c1
:1014000064ff070080467800180078001000fb0099
:10141000bd01070091062000810f50003800320006
:1014200012003c0041062000810f500034003200c1
:101430000a003c0011062000810f500020003200fd
:1014400031062000810f5000a00032005102200020
:10145000810f5000bc003a00b40037007106200034
:10146000810f5000b8003c008800370001072000c1
:10147000810f50005c00320007003c00e1062000b4
:10148000810f50007a003200f1062000810f5000d9
:10149000ad003a003900370051072000810f50009d
:1014a0002700320081072000810f500042003200e7
:1014b00031072000810f5000a3003a008f00370051
:1014c0008d80fb000c01780000fe2f000f00400013
:1014d000c00107000000e000a800320018007800fa
:1014e000000ce8009041780002fe2f000f0141003f
:1014f000f88057000a00780024ff07000e0037002c
:101500008d80fb008c0178001200200000fe2f006f
:101510000f00400043fe07000000e000970032008b
:10152000180ce80002fe2f000f014100f880570060
:101530000a0078005efc07008084440090003700b9
:101540008d80fb008c0178000001eb0000fe2f0075
:101550000f00400033fe07000000e000870032006b
:10156000180ce80002fe2f000f014100f880570020
:101570000a00780059fd0700efff37008d80fb005f
:101580008c0178000001eb0000fe2f000f004000ee
:1015900024fe07000000e00078003200180ce8008c
:1015a00002fe2f000f014100f88057000a0078006a
:1015b00098fc0700e0ff37008d80fb008c0178006d
:1015c0000001eb0000fe2f000f00400015fe070099
:1015d0000000e0006900320018007800000ce8000c
:1015e000904178001c0037008c0178000001eb006e
:1015f000010f200000fe2f000f00400009fe070031
:101600000000e0005d003200180ce8000fb0970009
:101610009fb097002fb19700bfb19700e00f500027
:10162000e08f5800e00f5900e08f590009003a00a0
:10163000cfb597006fb49700c0a4200004fc07004a
:101640000b0278008801780000017800c1a4200016
:101650004700370083c7b30002fe2f000f0141008f
:10166000f88057000a00780045fd0700b2ff3700f8
:101670000b8144008d80fb008c01780000fe2f0060
:101680000f0040003bfe07003c0037008d80fb0050
:101690000c01780000fe2f000f0040004d010700f4
:1016a0000000e0003500320018007800000ce8006f
:1016b0009041780002fe2f000f014100f880570092
:1016c0000a007800b1fe07009bff370000c8b30096
:1016d00080cf560029003a00180ce8001c80e90071
:1016e000000e780010407800e0df9f00130020001b
:1016f000e2fd2f000f0141000800370000c8b300d1
:1017000080cf56001d003a00180ce8001c80e9004c
:10171000000e78008001eb0010017800f88057007f
:101720000a00780070fc070083ff370000c8b30090
:1017300080cf560011003a00180ce8004fb2970015
:10174000efb19700080037000e0c78000000eb00a6
:10175000c0b79f00e0b79f000080eb00d0b79f00ac
:101760000002eb00840178001200200021a5200077
:101770000a0078004afe07006fff3700180ce800e7
:10178000090078004f0778004f06be004f05be00e5
:101790004f04be006f01b100000006008200fa0095
:1017a000889fbe008a1f78000005780082047800b8
:1017b000c13f9f000004eb001000370009027800d1
:1017c00088017800a2f72f000f01410081f72f0058
:1017d0008f8040000a00780084fe07000800400067
:1017e000880f500004003d00b004200080538800a2
:1017f0000084eb0004003700000478004f389700a5
:101800001004e000edff3a00080078004f05780072
:101810004f04be000080fa0000000600800078003f
:101820001000200002022000828f500004003200cd
:10183000e9805000e48f5000010036000000eb000a
:1018400000000600889fbe008a1f7800000578000f
:101850000a047800984478000805e8000900fb00b5
:10186000eeff07000000e000f9ff3a00b0c2b3004d
:1018700080cf540005003200d0c2b3008000eb00de
:1018800080cf540005003a00020037008000eb00d2
:1018900001003700110020000804e8000000eb0000
:1018a000030037006a02b900020052000003b000d2
:1018b0003801fb0003fd2f0082814100e98f5100b8
:1018c000f8ff36000100e00001003a000000ea00e5
:1018d0004f0578004f04be0000000600800178002c
:1018e00002003700b15978000201e9000200e0006f
:1018f000fcff3a0000000600889fbe008a9fbe00e1
:10190000800478000200e0005b00320001407800b3
:10191000814c780082814400f1f99f00e20f510070
:101920005500360091449800a1449800e1f99f00c9
:10193000d1f99f00e60f51004f003600b1449800e6
:10194000c1f99f00e80f51004b0036000905ea007d
:10195000630565000a8444000a055100c1ff2f0099
:10196000010565000080fb008000eb0012102000e4
:1019700013102000f8000700008cbe000a0144008c
:1019800060b99f0071b99f00e80f55003a0036001a
:1019900020049800310498004004980051049800f5
:1019a00020b99f0031b99f0040b99f0051b99f00f5
:1019b000f80f55003000360060049800710498005c
:1019c000000c9800110c9800200c9800310c980025
:1019d000400c9800510c980020b19f0031b19f003d
:1019e00040b19f0051b19f0060b19f0071b19f0055
:1019f00000b99f0011b99f006401640078014100a3
:101a000002044400020555006011b8000203be0044
:101a10000002be000403be006022b8000000720095
:101a2000818072000201730083817300100037000f
:101a3000009cbe000294be0040049800510498002f
:101a40006204980073049800000c9800110c980030
:101a5000220c9800330c9800400c9800510c980010
:101a6000620c9800730c98000a02b1000802b000e2
:101a7000ff0f5500eeff3e00090078004f05be0045
:101a80004f04be00000006000101780080017800cc
:101a9000008268000408a30005003200130037002c
:101aa00032407800805978000004e00014003200d1
:101ab000030278000208a300f9ff3a00030078004f
:101ac000010037000318780082007800b201780026
:101ad000f5ef2f00838242000382ea000482620055
:101ae0000508280005026200f6ff320000027800b7
:101af00031417800025878000204e000fbff3a0010
:101b00000400780000000600f1fb2f0080804000f8
:101b1000f98f500001003e000050a00000000600b8
:101b2000f9ff3700f1f92f0080804000f98f500055
:101b300001003e00f005b20000000600f9ff37008a
:101b4000f28747008e1f78000202780003017800b8
:101b50000000e000020032000007780001003700ba
:101b6000728757008002eb000100e00001003200a4
:101b70008102e90070805700060009000018eb00a0
:101b80000080eb0080bf9f002310200093bf9f00c8
:101b9000aebf9f00b1bf9f00c5bf9f000100e00026
:101ba00003003d00b1042000815388000600370087
:101bb000004feb00eebf9f00debf9f008400780067
:101bc00070805700220007004f0778002f01b100f6
:101bd00000000600881f780000047800000820003c
:101be000808f50001700350010082000808f5000b3
:101bf0000b00340030082000808f500011003a00a4
:101c00009200780068805000000978003002be0021
:101c10002003be00049cbe000694be0007003700ef
:101c20009202780064805200000978001000be0023
:101c300015000700009cbe000294be0010002000aa
:101c4000010037000000eb004f04780000000600a0
:101c50000200fa00881f780000047800e2bf9f00ad
:101c60006481570008007800ccfe070098009000bf
:101c70000148a300010032000080eb004f0478000f
:101c80000080fa0000000600810378001d000700b4
:101c90000001be006000b8000478a30013003a0001
:101ca0006220e10015003e000d0039008301d100e3
:101cb0000281d3008180d3008301d1000281d3004f
:101cc0008180d3008301d1000281d3008180d300c1
:101cd0000538b000c42add00f300b2008381720031
:101ce00007f0a70003f0a0000000060083ff270014
:101cf000020020006110b900f9ff370003ff270040
:101d0000f7ff3700c70ade00f107b200f50fb20097
:101d100008003200e1cf4200020032000170a00052
:101d200024000500810f7000010032000408050046
:101d300044000500810f700002003a001400050005
:101d40008502e9000000400081c04800fcff3b0024
:101d50000170a00024000500020ab900001bb900b0
:101d60000200b8008100420081004300000006002c
:101d7000889fbe008a9fbe0030044200b0844a00a3
:101d800030054b0090854b006000b1000898be0004
:101d90000a90be000440e10005c8e10006d0e10061
:101da00007d8e10002003100680040001008e80098
:101db0004f05be004f04be0000000600889fbe0015
:101dc0008a9fbe003004be002005be0004185400e7
:101dd00005985c0006185d0007985d001100200062
:101de0000440e10005c8e10006d0e10007d8e100a9
:101df000010039008000eb00108810004f05be0084
:101e00004f04be00000006001200fa00889fbe00ca
:101e10008a9fbe008c9fbe00e0b79f00f1b79f0075
:101e200082bf9f0093bf9f000605be000404be0052
:101e30000000eb00d0b79f00c0b79f00b0b79f0075
:101e4000a0b79f0090b79f00000678005fb1970091
:101e5000cfb09700820141003fb097000200e00040
:101e600004003d00370007007e805700c0ff0700d8
:101e700003003700330007007e805700cfff0700c4
:101e8000dfb697000d00e0000c0035006fb2970040
:101e9000ffb297000fbb97009fbb97001000200078
:101ea000010020006011b8000002720081827200ff
:101eb00002037300838373001b0007000c06e80015
:101ec00001042000810f5600e0ff3a000d00e00001
:101ed00004003d000802be000a03be007e805700d9
:101ee000a3ff07005fa897000000e00005003a008c
:101ef0001fb29700afb297003fb39700cfb39700e0
:101f0000090007006fb09700ffb097000fb9970066
:101f10009fb997004f06be004f05be004f04be009c
:101f20000080fa0000000600010007000000060023
:101f3000a4b79f00b5b79f00c6b79f00d7b79f0053
:101f4000000006004f09de0082817100b3b79f00d8
:101f50004f01de008180400082807000a1b79f00a9
:101f60008fb097004f09de000000400002007000b3
:101f700090b79f007fa897004f01de00818040004e
:101f80008280700081b79f000d0007004f3ade008d
:101f90000000400004007000f0af9f000800070040
:101fa0000402420085824a0006034b0087834b00ef
:101fb000dfff07000802be000a03be0000000600a3
:101fc0002fb29700bfb297004fb39700dfb39700cf
:101fd00000000600881f780018002000881f780085
:101fe00089ff07008f87e9004f0478000000060092
:101ff000801feb0084ff07008f87e90000000600c8
:10200000889fbe008a9fbe00e00f5000e08f5800fe
:10201000e00f5900e08f59000c003d006044b8000b
:102020006055b8000000540081805c0002015d0032
:1020300083815d00180020001500070008003d00a6
:10204000180007000004eb00050037000004eb0057
:102050000f00070002003d001200070018002000da
:10206000dcff07000800e000060032006022b80034
:102070006033b8000000520081805a0002015b000a
:1020800083815b004f05be004f04be0000000600c8
:10209000e00f5200e08f5a00e00f5b00e08f5b0022
:1020a000000006006044b8006055b8000402540007
:1020b00085825c0006035d0087835d0000000600ea
:1020c000889fbe008a9fbe008c1f7800e00f5000e2
:1020d000e08f5800e00f5900e08f59000d003d00df
:1020e0006044b8006055b8000000540081805c0076
:1020f00002015d0083815d001c0020000820e100da
:1021000009a8e1000ab0e1000bb8e1000d003d00b4
:10211000080037000006eb00e00f5200e08f5a0085
:10212000e00f5b00e08f5b0006003d006044b800fc
:102130006055b8000402540085825c0006035d000f
:1021400087835d00aaff07000c00e0000600320054
:102150006022b8006033b8000000520081805a004d
:1021600002015b0083815b004f0678004f05be00d3
:082170004f04be000000060050
:020000040000fa
:102178005f5f00000508000000000000000000008c
:102188000000000000fa00000000000000e000006d
:1021980000e0000000280000fe280000fe280000e3
:1021a80024540000fe54000048c40000c810000079
:1021b800264600006c9200006a0400000a00000035
:1021c80010e00000c0000000003800004482000059
:1021d800000000008244000038000000543800006d
:1021e800fe38000054100000107c000010100000a1
:1021f800000000000e0c000000100000101000008d
:102208001010000000000000060600000004000096
:1022180008100000204000007c8a000092a2000004
:102228007c00000042fe0000020000004e92000008
:10223800929200006284000082920000b2cc0000fa
:102248001828000048fe000008e40000a2a20000d0
:10225800a29c00003c520000929200008c82000078
:102268008488000090e000006c92000092920000c8
:102278006c62000092920000947800000000000058
:102288002800000000000000022c000000000000f0
:1022980000100000284400008228000028280000c0
:1022a8002828000000820000442800001040000098
:1022b800809a0000906000007c820000ba9a0000ba
:1022c800723e000048880000483e0000fe92000070
:1022d800929200006c7c0000828200008244000020
:1022e800fe820000828200007cfe000092920000c4
:1022f80092820000fe90000090900000807c000018
:10230800828200008ace0000fe100000101000003b
:10231800fe00000082fe00008200000004020000af
:1023280082fc000080fe00001028000044820000ab
:10233800fe0200000202000002fe00004038000019
:1023480040fe0000fe20000010080000fe7c000097
:1023580082820000827c0000fe90000090900000c5
:10236800607c0000828a0000847a0000fe900000f1
:10237800989400006264000092920000924c000061
:10238800c0800000fe800000c0fc000002020000c7
:1023980002fc0000f804000002040000f8fc000041
:1023a800021c000002fc0000c628000010280000e3
:1023b800c6c00000201e000020c00000869a000051
:1023c80092b20000c2000000fe820000828200007b
:1023d8004020000010080000040000008282000075
:1023e80082fe000020400000804000002002000023
:1023f800020200000202000000c00000e01000001d
:10240800000400002a2a00001c020000fe1400003c
:10241800222200001c1c00002222000022140000be
:102428001c22000022140000fe1c00002a2a0000c2
:102438002a180000001000007e90000040300000c4
:102448004a4a0000523c0000fe1000002020000014
:102458001e00000022be000002000000040200006e
:1024680002bc000000fe000008140000220000006a
:1024780000820000fe020000003e0000201e000056
:10248800201e00003e100000202000001e1c00003e
:1024980022220000221c00003e1800002424000014
:1024a8001818000024240000183e00003e10000008
:1024b80020200000101200002a2a00002a24000010
:1024c80020200000fc220000243c00000202000042
:1024d800043e00003804000002040000383c0000fc
:1024e800020c0000023c0000221400000814000046
:1024f800223200000a0a00000a3c000022260000de
:102508002a32000022000000106c00008200000047
:1025180000000000fe00000000000000826c0000c7
:102528001000000040800000402000004000000033
:10253800dff700005aff0000ff070000fa7f0000e5
:10254800fff70000bbf7000038ff000000000000a4
:1025580059ff00001f0000005c89000045a1000031
:10256800d0dd0000f45c0000e07f000043d30000f1
:10257800eafb0000bd640000dbff0000a7d80000f4
:10258800ff070000110000005104000021bc0000fa
:1025980055ad00002003000055ad0000adbd0000a2
:1025a800118800004553000060fc00009999000064
:1025b80000880000afec0000f18d0000f149000038
:1025c800692a0000692a00007a0600001a900000b3
:1025d800b2f80000ff0500004d6b00004d6b0000d5
:1025e8009f1c000004b10000deff0000442400002e
:1025f8001ff80000fbde0000dfff0000a0fe000067
:1026080024dd00001084000000040000e5af000095
:1026180010840000fef7000056fb0000ebca000023
:1026280010480000feff000031f700003fe70000ff
:102638009eff0000e07f0000d9ff0000dcae000034
:1026480010f40000ffe70000daff00009ad600004f
:10265800729700009ad60000b8fd00000ffd000038
:10266800952500007f860000537400005374000015
:102678003bb60000fcff0000e007000066360000e3
:102688009cff00001ff80000008000007566000035
:1026980019000000baba00009b9300008e3d0000ac
:1026a8005d7b0000d3070000994e0000b0c0000019
:1026b800ce180000fff700003cff000036ff0000c6
:1026c800f5fe000010000000bcff000000840000c0
:1026d800646c000020fd000020fa00009adb000076
:1026e80055ef0000d39f00007daf000092db000093
:1026f8007aff0000d7fe000027cc000019fe00007a
:102708001bdd00001cb700001080000000f800006e
:1027180071bc00005c430000228a00000efc00002f
:102728002cf500004a2c0000bdff000085a2000027
:1027380018c600007d860000d96a000012740000e7
:1027480012740000dfff0000ef07000016440000cd
:10275800b1d5000010040000fbdd000008fb0000fc
:102768001a4700001dec0000f6f60000ffff00000d
:10277800bef70000e0ff0000669e00001f1c00007e
:102788001f1e00001f1e00001f1f00001e1f00004c
:102798001e1f0000414d0000005000004d000000c9
:1027a80025300000327500003a2500003032000064
:1027b800753a000025300000327500002025000021
:1027c8007300000025300000327500003a25000033
:1027d80030320000753a00002530000032750000e4
:1027e8000025000030320000752f00002530000061
:1027f8003275000000000000200100000000000009
:1028080000000000200100000f0000000000000090
:020000040000fa
:102818000600fa00000f78001107980022079800b8
:102828001e007800804078002e0090000148780053
:102838002e00900011c0b300614898002e0090004f
:102848009e0090001101be002200980033009800fd
:102858001e007800e30f50002f003200e30f5000f5
:1028680005003e00e10f500015003200e10f500056
:102878001e003e0007003700e60f50003e00320001
:10288800e70f500048003200e50f50002e003200dc
:10289800570037002e0090009e0090001102be00e5
:1028a8002400980035009800a10290004500980087
:1028b8002e00900061b921001100980050003700e7
:1028c8002e0090009e0090001103be002600980084
:1028d80037009800a1039000470098002e00900050
:1028e80001bb210011009800450037002e00900020
:1028f8009e0090001101be0022009800330098004d
:10290800a1019000430098002e009000e1bc210036
:10291800110098003a0037002e0090009e009000a9
:102928003102be002103be00240098003500980043
:1029380046009800570098002e009000c1be210064
:10294800110098002e0037002e0090009e00900085
:102958003102be002103be00240098003500980013
:1029680046009800570098002e009000e1c0210012
:1029780011009800220037002e0090009e00900061
:102988003102be002103be002400980035009800e3
:1029980046009800570098002e00900001c32100bf
:1029a8001100980016003700ae0090001e0090003d
:1029b800e4804000b0187800a0107800e48040005f
:1029c80064004000b0187800a0107800e48040004f
:1029d80064004000900878008180e8000080e800ea
:1029e8002e00900021c52100110098000400370036
:1029f8002e00900001b8210011009800000000008e
:102a08000080fa00000006000400fa002047980041
:102a1800314798002e4090008080fb003e40900097
:102a28000000fb00008f4000c00b29001040780018
:102a38000080fb009e0f500003003d00c00b2900e2
:102a480010407800080037001e0078000000e00001
:102a580002003d000040eb0003003700be4090003c
:102a68002e40900000c040000080fa0000000600e0
:102a78000200fa00004f780011479800c00b2900a7
:102a8800104078009e40780080cf500005003e003e
:102a9800d00b2900104078009e40900080cf500055
:102aa800020036000000eb0007003700f1c5b30054
:102ab8001e407800b2050700f1c5b3001e40900023
:102ac8009a050700f20507000080fa0000000600da
:102ad8000400fa00004f7800114798001207980088
:102ae800c00b2900104078009e40780080cf50002d
:102af8000e003e00d00b2900104078009e40900048
:102b080080cf50000b003e00f1c5b3001e40780096
:102b18009b050700f1c5b3001e4090008305070020
:102b28001e009000030607000300370000000000a5
:102b380001003700000000000080fa0000000600d5
:102b48000e00fa00004f9800114f9800224f98008d
:102b5800630798000e4890008080fb002e48900084
:102b68000080fb0080805000c00b290010407800d6
:102b78000080fb00808f500070003c001e489000d1
:102b88008080fb002e4890000080fb008080500071
:102b9800d00b2900104078000080fb00808f500087
:102ba80068003c002e4890000004e00001003a0054
:102bb80010c0b300204f98002e4890008040780045
:102bc8000e48900090ff0700204798002e4890007c
:102bd8000040ea00804078000e4890008aff070015
:102be800304798002e489000804078001e4890009a
:102bf80085ff0700404798002e4890000040ea00f3
:102c0800804078001e4890007fff070050479800da
:102c1800be409000014f7800430037000e489000f6
:102c28009e4f5000030039000e4890001e4050008f
:102c3800030037009e4078000e48900000c0500006
:102c480060479800de409000114798003100370037
:102c58009e4890001e40900080cf5000040039002c
:102c68009e4890001e40900000c0500003003700ae
:102c78009e4090001e48900000c050007047980089
:102c88007e4090008080fb006e4090000080fb003a
:102c9800808040002e4890000080fb00808f50000c
:102ca800150034007e4090008080fb007e4090003c
:102cb8000080fb000088b900000178006e40900099
:102cc8008080fb006e4090000080fb000088b90007
:102cd80000007800000141002e4890008080fb0031
:102ce8002e4890000080fb000088b90000007800a2
:102cf800800f510004003c006e0190009e4090003f
:102d08001e40780072ff07001e4090000040e80057
:102d1800104798009e4090004e40900080cf500091
:102d2800cbff39001e4fe8002e4090009e407800ef
:102d380080cf5000b9ff39000300370000000000c1
:102d480001003700000000000080fa0000000600c3
:102d58000c00fa006047980071479800024f9800ed
:102d6800530798000040eb00104798000040eb0024
:102d7800204798000040eb00304798000000eb0027
:102d8800200798000e4890000004e00001003a0077
:102d980010c0b300004f98000e4890000040e800b3
:102da800004f78000040eb00104798000040eb000f
:102db800204798000000eb002007980067003700c4
:102dc8001e4090000000fb00000040000000e800ea
:102dd800ae00900000804000200798001e40900040
:102de8000040e800104798002e0090000000e00026
:102df8005a0035004c003700ae409000314798002b
:102e080043003700ae4090007e40900080c04000f4
:102e18003e4190006e409000004041005e019000ed
:102e28002bff07002e409000fe40900080c050000d
:102e38003e4190006e409000004041005e019000cd
:102e480023ff0700ae4090007e40900080c0400005
:102e58003e4090006e419000004051005e0190009d
:102e68001bff07002e409000fe40900080c05000dd
:102e78003e4090006e419000004051005e0190007d
:102e880013ff0700be4090007e40900080c04000c5
:102e98002e4190006e409000004041005e0190007d
:102ea8000bff07003e409000fe40900080c050009d
:102eb8002e4190006e409000004041005e0190005d
:102ec80003ff0700be4090007e40900080c0400095
:102ed8002e4090006e419000004051005e0190002d
:102ee800fbfe07003e409000fe40900080c050006e
:102ef8002e4090006e419000004051005e0190000d
:102f0800f3fe07003e4090000040e800304798007c
:102f18003e4090009e4f5000baff35002e40900072
:102f28000040e80020479800ae4090001e40900006
:102f380080cf5000b0ff35009e00fb00e0ff2f005f
:102f48000088b900000078000000e800ae0090009a
:102f580000804000200798001e4fe9001e409000a6
:102f68009e40780080cf500095ff3d000080fa0019
:102f7800000006000a00fa004047980051479800f0
:102f88006247980073479800440798007e40900075
:102f98000080fb000000d10000407800ee40900067
:102fa80000c040006047980064003700ee40900081
:102fb800014f78000040eb00104798000000eb003c
:102fc80010079800560037009e4090005e40900021
:102fd80080c040001e4178004e40900000404100f3
:102fe8004e019000bafe07001e409000de4090009f
:102ff80080c050001e4178004e40900000404100c3
:103008004e019000b2fe07009e4090005e40900086
:1030180080c040001e4078004e41900000405100a2
:103028004e019000aafe07001e409000de4090006e
:1030380080c050001e4078004e4190000040510072
:103048004e019000a2fe07009e4078005e4090006e
:1030580080c040001e4190004e409000004041005a
:103068004e0190009afe07001e407800de40900056
:1030780080c050001e4190004e409000004041002a
:103088004e01900092fe07009e4078005e4090003e
:1030980080c040001e4090004e419000004051000a
:1030a8004e0190008afe07001e407800de40900026
:1030b80080c050001e4090004e41900000405100da
:1030c8004e01900082fe07001e4090000000fb00a9
:1030d800000040000000e8009e00900000804000d2
:1030e800100798001e4090000040e8001047980024
:1030f8001e0090000000e000090035009e00fb0063
:10310800e0ff2f000088b900000078000000e80008
:103118009e00900000804000100798001e4fe900b4
:103128001e4090009e40780080cf5000a6ff3d00d2
:103138006e4090000040e900604798007e40900093
:103148000080fb000000ea004f00de00004078002d
:10315800fe4090008140e900714798000004e000bb
:1031680092ff3a000080fa00000006000e00fa0004
:103178006047980071479800024f9800134f9800d5
:10318800244f9800650798002e4890000004e0003e
:1031980001003a0010c0b300204f98008e489000fc
:1031a8006e40900000c05000304798009e48900044
:1031b8007e40900000c0500040479800ce409000ec
:1031c8003e40900000c0500020479800fe4090000c
:1031d80011479800ee409000014f78002c0037000e
:1031e8009e00fb00c00b2900104078000080fb0007
:1031f800808f500017003c001e4090008000fb00ac
:10320800d00b2900104078000080fb00808f500010
:1032180010003c002e489000e14f500005003e0091
:103228009e4090001e4078006e01900028fe070026
:10323800080037002e4890000080fb000000d100f5
:10324800004178009e4090001e407800ee019000fa
:10325800bffe07002e4090000004e0000700350084
:103268001e4090000040e80010479800ae409000d3
:103278003e40900000c0500020479800ae409000ab
:103288004e40900000c04000204798001e4fe800c4
:103298009e00fb000e4890000080fb00808f5000cd
:1032a800cfff35000080fa00000006000800fa0091
:1032b80020479800314798004247980053479800a4
:1032c80034079800ce4090002e409000ac030700d1
:1032d800de4090003e40900094030700ae4090000e
:1032e800014f780010003700be4090001147980049
:1032f800050037003e0090000e0407001e409000b5
:103308000040e800104798001e4090008080fb00b5
:103318005e4090000080fb000000e800808f5000b5
:10332800f4ff35001e4fe8009e80fb004e409000e1
:103338000080fb000000e800808f5000eaff3500a5
:103348000080fa00000006001000fa00004f980004
:10335800114f9800224f9800334f9800444f98001f
:10336800750798004e4890000080fb0001fe2f0072
:1033780080804000e00b2900104078000080fb00ae
:103388000088b9000000780080007800000c29004f
:10339800008f40000000eb00100798003c00370049
:1033a8001e00780090407800614798001e0fe800e2
:1033b800f00b2900104078008080fb003e48900008
:1033c8000080fb000088b900000078002007980002
:1033d800270037006e4090000080fb00610060000d
:1033e800004078000004e000180032002e00900031
:1033f800804078001e48900080c040003e48900001
:1034080000c040008041e9001e0090008040780024
:103418000e48900080c040002e48900000c0400038
:103428000041e9002e009000804078001e4890007e
:1034380080c040001e009000004278000e489000b6
:10344800004042007e02900098ff07006e40900006
:103458000080fb000000d100604798003e489000c3
:103468000080fb00ae00900000805000200798000c
:103478002e0090000000e000d6ff3a002e48900091
:103488000080fb009e00900000804000100798001c
:10349800e00b2900104078008080fb002e48900047
:1034a8000080fb000088b9000000780080007800e8
:1034b8001e009000808f5000b9ff3e000080fa0087
:1034c800000006000800fa00004f78001147980035
:1034d800224798003347980024079800350798003a
:1034e800150037002e00900010407800ae009000c4
:1034f8008100e80021079800be0290000042780091
:10350800be4190002e4190009e4090001e407800e1
:103518008dff0700e00b290010407800ae409000b6
:103528008180fb000088b900000078000040780026
:103538001e404000004fe8002e0090001040780028
:103548000004e000e7ff3a000080fa0000000600ef
:103558001400fa00889fbe00204f9800314f980051
:1035680062079800634f9800744f9800050f980001
:103578002657980000c2b300604798006e48900034
:103588000004e000020032006e489000010037009d
:1035980010c0b300604f98007e4890000004e0001f
:1035a800020032007e4890000100370010c0b300ce
:1035b800704f98000040eb00004f7800470037003c
:1035c8000e0890001001be0012079800230798000b
:1035d8000e08900064004000000f98001e4078001c
:1035e800fe4890008180fb000088b9000000780048
:1035f800804078003e48900000c040007047980026
:103608000040eb00104798002f0037001e00900084
:10361800ae00900000007800610060008004eb00bc
:10362800000478000800be00e00f5000e08f58004a
:103638001c003a006e4090008080fb001e40900005
:103648000080fb000080500000407800ee489000a9
:103658008180fb000088b900000078008040780075
:103668002e48900000c04000004f9800fe40900097
:103678007e48900000c040008040e9000e4990005c
:103688006e489000004041000040e9006e02900042
:103698008141780000417800fe4090000e4890007b
:1036a80002ff07001e009000ae0090008100d100cc
:1036b8000080d30010079800210798001e40900052
:1036c8000040e800104798009e4090006e4090002f
:1036d80080cf5000cdff39001e4fe8002e509000db
:1036e8009e40780080cf5000b5ff39004f04be00df
:1036f8000080fa00000006000200fa00000f7800bf
:103708001e007800200190001e007800f040900014
:103718001e00780060409000edfc07000080fa0071
:10372800000006000200fa00000f78001e00780072
:10373800a00190001e007800004990001e0078004b
:10374800f04090001e0078006040900080fd070067
:103758000080fa00000006000200fa00000f78005e
:103768001e007800200290001e007800904990000a
:103778001e007800004990001e007800f04090007c
:103788001e00780060409000fafd07000080fa00f3
:10379800000006000200fa00000f78001e00780002
:1037a800200290001e007800904990001e007800ca
:1037b800004990001e007800f04090001e0078003c
:1037c80060409000b9fe07000080fa000000060083
:1037d8000200fa00000f78001e007800a002900096
:1037e8001e007800004a90001e007800a049900052
:1037f8001e007800104990001e007800f0409000ec
:103808001e0078006040900058fe07000080fa0013
:10381800000006000200fa00000f78001e00780081
:10382800a00290001e007800204a90001e00780038
:10383800904990001e007800004990001e00780012
:10384800f04090001e00780060409000befe070027
:103858000080fa00000006000200fa00000f78005d
:103868001e007800a00290001e0078005002900010
:103878001e007800904990001e00780000499000d2
:103888001e007800f04090001e0078006040900014
:103898000cff07000080fa00000006000200fa0092
:1038a800000f78001e007800404b90001e00780042
:1038b800d00290001e007800104a90001e00780088
:1038c800804990001e007800200190001e007800ba
:1038d800f04090001e007800604090001cff070038
:1038e8000080fa00000006000000fa0095e1a90037
:1038f8009421a900a10c80000003200001007000a1
:10390800a00c880080d02300900c88009021ef0044
:103918008860a9009860a80041058000f0ff280091
:103928000080600000e0a0004005880095e1a80044
:103938000080fa00000006000200fa00e0a620005d
:10394800104078008040e800e0a620000148780098
:10395800e0a6200090407800b0c3b30080cf5000ac
:1039680041003600e0a620008040eb0001487800c6
:10397800d0a62000104078008040e800d0a62000a3
:1039880001487800d0a6200090407800b0c3b3006a
:1039980080cf500034003600d0a620008040eb00d5
:1039a80001487800c0a62000104078008040e80058
:1039b800c0a6200001487800c0a62000104078006a
:1039c800f74f500028003600c0a620008040eb00ca
:1039d80001487800a0a62000104078008040e80048
:1039e800a0a6200001487800b0a62000104078006a
:1039f8000080fb008000e900c00020000001780082
:103a0800110009008200d8008000fd00004f7800f6
:103a1800a0a62000904078001e80fb00223c2900d0
:103a28006240780080cf50000f003600a0a620002a
:103a380011c0b30001487800b0a6200010407800fb
:103a48008040e800b0a6200001487800b0a6200019
:103a580010407800ec4f500003003600b0a620005c
:103a680011c0b300014878000080fa000000060089
:103a78001800fa00404f9800514f9800624f980084
:103a8800734f9800040f9800150f9800260f9800a0
:103a9800370f98006e4890006500b9000000780064
:103aa8001047980010c0b300204798007e48900047
:103ab8004300dd00304798000e089000e2f207004e
:103ac800404798001e089000dff207005047980012
:103ad800ce4090005e409000814f500001003100c0
:103ae80001407800604798000040eb00004f7800e4
:103af800470037004e4090009e40780080cf50002d
:103b0800050031001e80fb008e08900000804000f8
:103b180010407800010037000040eb007047980023
:103b28005e4090009e40780080cf50000500310034
:103b38001e80fb009e089000008040001040780026
:103b4800010037000040eb00004f9800fe40900055
:103b58000e48900080cf50002c0032001e4090008c
:103b68008080fb002e4090000080fb000080400019
:103b7800004078009e80fb000088b90000007800b3
:103b8800804078004e48900000c04000104f9800d8
:103b9800de4890003e40900000c040008040e900b0
:103ba8001e4990001e409000004141002e409000a8
:103bb800004041000040e9003e0a90008141780041
:103bc80000417800de4890001e489000b7fd0700cd
:103bd8007e4090000004e0000c003200fe4090009f
:103be800214f98000040eb00304f98006a004700d2
:103bf800ae0a900000027800fe4990006e499000dd
:103c0800de4890001e4890002efe07001e4fe80078
:103c18006e4090009e40780080cf5000b5ff39007c
:103c28008e0890001e08900080f207000080fa00bd
:103c3800000006002800fa0006c8bf000004e000e3
:103c480029003200c0a62000104078000081fb0047
:103c5800b0aa2a000010b8004308de006c00b900c2
:103c68000000780000005100004f78001e407800e6
:103c78000004e00002003a00c0c0b300004f780022
:103c8800c0a6200010407800eb4f500002003e0014
:103c9800e03c290001003700103d2900100798007a
:103ca800e0a62000104078008081fb00d0a620000c
:103cb800104078000081fb009e80fb0064004700f4
:103cc8001e029000841f7800831f7800821f7800ee
:103cd800811f7800413d2900811f780046f20700c6
:103ce800ea87570011003700e0a62000104078004e
:103cf8008081fb00d0a62000104078000081fb00e6
:103d0800c0a62000104078008080fb0064004700b7
:103d1800831f7800821f7800811f7800613e290088
:103d2800811f780034f20700e8875700b0a620000a
:103d3800104078000081fb00a0a620001040780009
:103d48008080fb0078004700821f7800811f780080
:103d5800513f2900811f780027f20700e6875700a6
:103d680050958400d29d8400e400470080037800c9
:103d78000203780085a020000102780023c0b30068
:103d880022c0b30021c0b30020c0b30038ff070031
:103d980050958400f29d8400f80047008003780065
:103da80002037800c5a120000102780013c0b30007
:103db80012c0b300e1c1b30040c0b3002cff07003c
:103dc8000080fa00000006000400fa00c60307009d
:103dd800f1c5b3000040eb00e9000700f1c5b300ee
:103de8000040eb00d1000700380107000000eb009d
:103df800000f780003003700509584004d0107003c
:103e08001e0fe800f03f22009e007800808f5000cf
:103e1800f9ff360036010700b3fe070010c0b300f3
:103e280020479800203380004b00de00614060008e
:103e38000080fb0000f0a7000000ea000000ea0094
:103e48004f00de00304798002e4090000004e0004c
:103e5800170032003e4090000004a2000004e00079
:103e68001300320000d42000310020008403070032
:103e78002133800000802000008060000000e00006
:103e88000b003a0006c8bf000080fb0000f0a70046
:103e98000000ea000000ea004f00de000040780061
:103ea8000004a2000080fb000040780006e8b7008c
:103eb800be40900021479800daff37000800fa005a
:103ec80000017800310798003e0090004800de00ad
:103ed800004f78003e009000104798001e80fb00bd
:103ee8004300de0000407800204798001e80fb0059
:103ef800670060004300dd00804078001e409000ad
:103f08000080fb004500de000040780000c0700023
:103f1800304798001e4090007f406000404798005e
:103f28000e80e80082007800904878008100e80060
:103f38000000e800904878008100e8000000e800f0
:103f4800904878008100e8000000e800020078004e
:103f58000080fa00000006000600fa0020479800da
:103f680031479800424798002e4090007f406000fb
:103f7800204798003e409000f043b2003047980038
:103f88004e4090007f406000404798002e409000cf
:103f98000080fb004300dd00804078003e40900038
:103fa8000080fb004300de000040780000c0700085
:103fb800004f78003e4090000080fb004500dd0087
:103fc800804078004e40900000c070001047980074
:103fd8001e80fb00c800dd001e4090000080fb0032
:103fe800010070000080fa00000006000200fa00dc
:103ff800000f7800c00520009e007800808f5000d8
:1040080004003200d00520009e007800808f500008
:1040180009003a00c00520009e007800808f5000fb
:1040280002003a0010c0b3000100370020c0b300fe
:1040380000e8b700010037000068ef000080fa00d0
:10404800000006000000fa000068ef000080fa0097
:10405800000006000200fa00004f7800114798009f
:10406800c70007000004a2000004e00002003200bc
:104078000080eb000c0037001e407800d6010700d6
:10408800004f78001e409000d301070010479800a9
:10409800bd0107001e80fb00c800dd001e40900027
:1040a8000080fb00010070000080fa00000006009c
:1040b8000600fa00000f78001107980042479800a0
:1040c800af0007000004a2000004e00014003a005a
:1040d8008f26a9008e66a9001e007800004078008f
:1040e800bd0107004e4090000004e00007003200c8
:1040f8008e66a8004e4090000080fb00800078008b
:104108001e009000da0107008e66a9008f26a8001d
:104118009d0107001e007800b4ff0700010037006a
:10412800000000000080fa00000006000400fa0009
:1041380020479800314798002e409000f1c5b30001
:10414800814f500001003600f0c5b300004f7800e1
:104158003e409000f1c5b300814f50000100360089
:10416800f0c5b3001047980022c0b3008e00780055
:1041780050072000ceff07000080fa00000006006c
:104188000400fa0020479800314798002e4090001c
:10419800f1c5b300814f500001003600f0c5b300ef
:1041a800204798003e409000f1c5b300814f500071
:1041b80001003600f0c5b300304798002e4090004b
:1041c80070404000004f78003e4090007040400032
:1041d8001047980022c0b3008e00780050012000dc
:1041e800b3ff07000080fa00000006000200fa0092
:1041f800004f78001e4078000004e0000200320002
:10420800e00a200001003700f00a20000041eb001e
:104218008000eb00a6ff07000080fa0000000600ff
:104228000200fa0020c3b300004f780012c0b300a8
:104238008e007800000a20009dff070000c2b3002e
:10424800004f780012c0b3008e007800100a2000da
:1042580097ff07000080fa00000006000000fa003f
:104268000041eb008000eb00d005200090ff070024
:104278008f26a9008e66a8000080fa0000000600bc
:104288000000fa001a0007000080fa00000006008b
:104298000000fa0000c8bf00e24f500001003200e1
:1042a800eeff070000c8bf00e24f500002003200d6
:1042b8000080eb000300370080c0eb0000c0eb007b
:1042c80064ff07000080fa00000006000000fa0002
:1042d8000041eb008000eb00c005200074ff0700e0
:1042e8008f26a9008e66a8000080fa00000006004c
:1042f8000000fa008f26a8008e66a90051ff07006b
:104308000080fa00000006000400fa00004f780060
:1043180011479800224798002e4190009e40900037
:104328001e4078000cff0700020007000080fa001a
:10433800000006000200fa00000f780000c8bf0065
:10434800e14f500001003200e0ff070000c8bf0045
:10435800e14f500007003a001e00780080407800c6
:104368001e0078004800de000040780039ff070092
:1043780001003700000000000080fa00000006007d
:104388000000fa00040107000080fa00000006009f
:104398000000fa008f06a90067a6a8008e26a900cb
:1043a80010002000e801070067a6a90020002000ef
:1043b800f601070067a6a8008f06a80010002000d5
:1043c800e10107000040eb0088ff0700800c200097
:1043d800dd010700f1c5b3000040eb0068ff0700ee
:1043e800f1c5b3000040eb0050ff07008cff070049
:1043f8000080fa00000006000200fa00000f7800b2
:104408000080fa00000006000200fa000040eb00fd
:10441800004f78000d0037001e80fb00c400dd004f
:1044280060812000008040008040eb000148780057
:104438001e80fb00c400dd00a0802000008040003a
:1044480001202200010878001e4fe8001e40780075
:10445800ff4f5000f0ff36000080fa000000060011
:104468000400fa0020479800ae409000014f780001
:104478000e0037001e80fb009e80fb008100e800d4
:104488004401dd0080802000000041004409dd0077
:104498008180200081004100070009003118780060
:1044a8000001b1000101b1001e4fe8001e40780074
:1044b800fe4f5000efff360060a020008040eb0068
:1044c800014878000080fa00000006000200fa00a7
:1044d800004f78001e40780001c2b300814f5000a1
:1044e8000100360000c2b300004f78001e80fb00b8
:1044f800c400dd0080802000008040000080fa00b9
:10450800000006000a00fa004047980031079800aa
:10451800420798004e409000ff4f500001003600bf
:10452800f0c1b30040479800f0c1b300004f7800d5
:104538000e0037001e80fb009e80fb008100e90012
:104548004401dd0080802000000041004409dd00b6
:10455800818020008100410007000900311878009f
:104568000001b1000101b1001e4fe9004e4090006a
:104578009e40780080cf5000030036001e4078002f
:104588000004e000ebff3a004e4090000080fb0082
:10459800c400dd00808020000080400010079800e3
:1045a8001e019000ce0090003e00900098f8070091
:1045b8000080fa00000006000200fa00004f7800b0
:1045c8001e80fb004400dd008080e8008080200021
:1045d80000804000900078001e80fb004401dd0050
:1045e8008080200000004100010001000080fa00e6
:1045f800000006000200fa00004f78009e40780094
:104608000040eb00090007000080fa0000000600e7
:104618000200fa00004f780001c2b3001e40780083
:10462800020007000080fa00000006000400fa00fb
:1046380020479800314798003e40900001c2b300df
:10464800814f50000100360000c2b3003047980087
:10465800ae409000014f7800140037001e80fb0028
:104668004400dd00ee004000808020000080400013
:10467800104078000004e0000b0032001e80fb00b0
:104688004400dd008080e800808020000080400039
:10469800900078001e80fb004401dd00808020002f
:1046a80000004100010001001e4fe8003e4090005c
:1046b8009e40780080cf5000e8ff39000080fa0063
:1046c800000006000800fa004047980031079800eb
:1046d8004e4090007dff0700000f78001e00780014
:1046e800a0009000110798001e007800be009000fe
:1046f800210098001e007800900090001e007800ad
:10470800010001001e0078009e0090002100980022
:104718000080fa00000006000400fa001007980064
:104728000040eb00004f78000c0037001e80fb00b3
:104738004400dd00ee004000808020000080400042
:10474800104078000004e000030032009e00900052
:104758001e407800dbff07001e4fe8001e4078006f
:10476800ff4f5000f1ff36000080fa0000000600fd
:104778000000fa0001c2b3000040eb00abff0700e5
:104788000080fa00000006000000fa00f5e3a90026
:104798000080fa00000006000000fa00a11f800057
:1047a80000002800008060000000e00007003a00d8
:1047b80000122000a01f88000424ef0077e6a9005b
:1047c800f5e3a80010c0b300010037000040eb007b
:1047d8000080fa00000006000200fa00004f78008e
:1047e8001e80fb000020880000000000e01f800001
:1047f800610060000000e000fcff32000020800043
:10480800004078000080fa00000006000600fa0068
:1048180010079800210798009e009000010f78006b
:10482800060037001e00780010407800eaff0700f5
:104838009e007800804878001e0fe8002e00900047
:1048480000f0a7000000ea000000ea004f00de00c8
:1048580000407800ae0090008100e9002107980030
:104868000004e000efff3a000080fa0000000600b4
:104878000600fa0010079800210798009e00900093
:10488800010f7800040037001e00780010407800ff
:104898001e0fe800d0ff07002e00900000f0a700d0
:1048a8000000ea000000ea004f00de000040780047
:1048b800ae0090008100e900210798000004e000a4
:1048c800f1ff3a000080fa00000006000600fa0036
:1048d80010079800210798009e009000010f7800ab
:1048e800050037000040eb00bbff07009e00780082
:1048f800804878001e0fe8002e00900000f0a70006
:104908000000ea000000ea004f00de0000407800e6
:10491800ae0090008100e900210798000004e00043
:10492800f0ff3a000080fa00000006000200fa00da
:10493800004f78001e80fb00002088000080fa00ed
:10494800000006000000fa00002080000040780007
:104958000080fa00000006000000fa0071048000e0
:1049680000402000008060000000e00006003200e7
:10497800104080000000e00002003200104080007b
:10498800000001008f40a9000080fa000000060026
:104998000200fa00000f78009e007800114088009d
:1049a8000080fa00000006000000fa006626ef000a
:1049b8007a26ef008e26ef0070f925001033880064
:1049c800f0ff2300b0338800500f200050348800d7
:1049d8007426ef008826ef009c26ef007226ef0071
:1049e8008626ef009a26ef006826ef007c26ef0067
:1049f8009026ef007000200050338800c02021006e
:104a0800f0338800500020009034880001088000ae
:104a1800f00b200000816000600420007105200078
:104a28000310200080497800814978008249780085
:104a3800113f800000f82f00008060007000b30074
:104a4800103f8800113f8000f00f280000806000b0
:104a580000b0a000103f8800c13d800000fc2f007e
:104a680000806000d000b300c03d880000088000ce
:104a7800000178000260a000600420007105200099
:104a88000310200080497800814978008249780025
:084a98000080fa000000060096
:020000040000fa
:104aa000000800000200000080000000080800006c
:104ab0000002000080000000020800000200000068
:104ac000800000002c0a0000200000008000000090
:104ad000040800000200000082000000ffff000048
:104ae0006a0a0000060000008200000001010000c8
:104af00000000000080a0000240000008000000000
:104b00000608000002000000800000004c0a0000bf
:104b10001e00000082000000286e69006c29000061
:104b200025006800076c09004c836a009074a0009f
:104b30007ac000008068880000846c0082008100d8
:104b4000700a000002000000800000000000000069
:020000040000fa
:104b50000200fa00000f78000300370000fa20007e
:104b600001002000480007001e00780000f0a700a8
:104b70000000ea000000ea004f00de00004078007c
:104b80001e0fe9000004e000f4ff3a000080fa0084
:104b9000000006000200fa00000f78000500370050
:104ba00000082000010020003700070001fe2f0050
:104bb0001e8f40001e007800ff0f5000f8ff3e00df
:104bc0000300370040002000010020002e000700f5
:104bd0001e00780000f0a7000000ea000000ea00d4
:104be0004f00de00004078001e0fe9000004e000e6
:104bf000f4ff3a000080fa00000006000000fa000e
:104c000000002300100888000621ef006821ef0053
:104c10006a21ef000821ef00007020005008880092
:104c20000c21ef000e21ef007821ef007a21ef0038
:104c30007c21ef007e21ef008021ef008221ef0038
:104c40008421ef008621ef000001eb0080072000a7
:104c5000a1092000131020008049780081497800c4
:104c6000824978000001eb006004200071052000fb
:104c7000031020008049780081497800824978003b
:084c80000080fa0000000600ac
:020000040000fa
:104c8800f03fb1000180b10006003500ee030900d5
:104c980000000000403fb1000180b100fbff3d0073
:104ca8001000b000203fb00002003500008009006d
:084cb8000000000000000600ee
:020000040000fa
:104cc0000200fa00000f78009e0078002140880062
:104cd000ffff37000000fa00c0a220008007780024
:104ce00040a42000000188000080fa0000000600b7
:104cf0000000fa002eff0700c0ff0700a6fd070016
:084d00000080fa00000006002b
:020000040000fa
:020000040005f5
:045e0000ffffff00a1
:020000040000fa
:020000040005f5
:045e2000ffffff0081
:020000040000fa
:020000040005f5
:045e300078ffff00f8
:020000040000fa
:020000040005f5
:045e38004bffff001d
:020000040000fa
:020000040005f5
:045e40009fffff00c1
:020000040000fa
:020000040005f5
:045e4800ffffff0059
:020000040000fa
:020000040005f5
:045e5000deffff0072
:020000040000fa
:020000040005f5
:045e5800efffff0059
:00000001FF
